{
  "_format": "hh-sol-artifact-1",
  "contractName": "CryptoBlessing",
  "sourceName": "contracts/CryptoBlessing.sol",
  "abi": [
    {
      "inputs": [
        {
          "internalType": "address",
          "name": "_sendTokenAddress",
          "type": "address"
        },
        {
          "internalType": "address",
          "name": "_cryptoBlessingTokenAddress",
          "type": "address"
        },
        {
          "internalType": "address",
          "name": "_cryptoBlessingNFTAddress",
          "type": "address"
        }
      ],
      "stateMutability": "payable",
      "type": "constructor"
    },
    {
      "anonymous": false,
      "inputs": [
        {
          "indexed": true,
          "internalType": "address",
          "name": "previousOwner",
          "type": "address"
        },
        {
          "indexed": true,
          "internalType": "address",
          "name": "newOwner",
          "type": "address"
        }
      ],
      "name": "OwnershipTransferred",
      "type": "event"
    },
    {
      "anonymous": false,
      "inputs": [
        {
          "indexed": false,
          "internalType": "address",
          "name": "account",
          "type": "address"
        }
      ],
      "name": "Paused",
      "type": "event"
    },
    {
      "anonymous": false,
      "inputs": [
        {
          "indexed": false,
          "internalType": "address",
          "name": "account",
          "type": "address"
        }
      ],
      "name": "Unpaused",
      "type": "event"
    },
    {
      "anonymous": false,
      "inputs": [
        {
          "indexed": false,
          "internalType": "address",
          "name": "sender",
          "type": "address"
        },
        {
          "indexed": false,
          "internalType": "address",
          "name": "blessingID",
          "type": "address"
        }
      ],
      "name": "claimerClaimComplete",
      "type": "event"
    },
    {
      "anonymous": false,
      "inputs": [
        {
          "indexed": false,
          "internalType": "address",
          "name": "sender",
          "type": "address"
        },
        {
          "indexed": false,
          "internalType": "address",
          "name": "blessingID",
          "type": "address"
        }
      ],
      "name": "senderRevokeComplete",
      "type": "event"
    },
    {
      "anonymous": false,
      "inputs": [
        {
          "indexed": false,
          "internalType": "address",
          "name": "sender",
          "type": "address"
        },
        {
          "indexed": false,
          "internalType": "address",
          "name": "blessingID",
          "type": "address"
        }
      ],
      "name": "senderSendCompleted",
      "type": "event"
    },
    {
      "inputs": [
        {
          "internalType": "string[]",
          "name": "images",
          "type": "string[]"
        },
        {
          "components": [
            {
              "internalType": "uint256",
              "name": "price",
              "type": "uint256"
            },
            {
              "internalType": "address",
              "name": "owner",
              "type": "address"
            },
            {
              "internalType": "uint8",
              "name": "deleted",
              "type": "uint8"
            },
            {
              "internalType": "uint256",
              "name": "taxRate",
              "type": "uint256"
            }
          ],
          "internalType": "struct CryptoBlessing.Blessing[]",
          "name": "blessings",
          "type": "tuple[]"
        }
      ],
      "name": "batchUpdateBlessing",
      "outputs": [],
      "stateMutability": "nonpayable",
      "type": "function"
    },
    {
      "inputs": [
        {
          "internalType": "address",
          "name": "sender",
          "type": "address"
        },
        {
          "internalType": "address",
          "name": "blessingID",
          "type": "address"
        },
        {
          "internalType": "bytes32",
          "name": "hash",
          "type": "bytes32"
        },
        {
          "internalType": "bytes",
          "name": "signature",
          "type": "bytes"
        }
      ],
      "name": "claimBlessing",
      "outputs": [
        {
          "components": [
            {
              "internalType": "address",
              "name": "sender",
              "type": "address"
            },
            {
              "internalType": "address",
              "name": "blessingID",
              "type": "address"
            },
            {
              "internalType": "string",
              "name": "blessingImage",
              "type": "string"
            },
            {
              "internalType": "uint256",
              "name": "claimTimestamp",
              "type": "uint256"
            },
            {
              "internalType": "uint256",
              "name": "claimAmount",
              "type": "uint256"
            },
            {
              "internalType": "uint256",
              "name": "taxAmount",
              "type": "uint256"
            }
          ],
          "internalType": "struct CryptoBlessing.ClaimerBlessing",
          "name": "",
          "type": "tuple"
        }
      ],
      "stateMutability": "payable",
      "type": "function"
    },
    {
      "inputs": [
        {
          "internalType": "address",
          "name": "sender",
          "type": "address"
        },
        {
          "internalType": "address",
          "name": "blessingID",
          "type": "address"
        }
      ],
      "name": "getAllInfoOfBlessing",
      "outputs": [
        {
          "components": [
            {
              "internalType": "uint256",
              "name": "price",
              "type": "uint256"
            },
            {
              "internalType": "address",
              "name": "owner",
              "type": "address"
            },
            {
              "internalType": "uint8",
              "name": "deleted",
              "type": "uint8"
            },
            {
              "internalType": "uint256",
              "name": "taxRate",
              "type": "uint256"
            }
          ],
          "internalType": "struct CryptoBlessing.Blessing",
          "name": "",
          "type": "tuple"
        },
        {
          "components": [
            {
              "internalType": "address",
              "name": "blessingID",
              "type": "address"
            },
            {
              "internalType": "string",
              "name": "blessingImage",
              "type": "string"
            },
            {
              "internalType": "uint256",
              "name": "sendTimestamp",
              "type": "uint256"
            },
            {
              "internalType": "uint256",
              "name": "tokenAmount",
              "type": "uint256"
            },
            {
              "internalType": "uint256",
              "name": "claimQuantity",
              "type": "uint256"
            },
            {
              "internalType": "enum CryptoBlessing.ClaimType",
              "name": "claimType",
              "type": "uint8"
            },
            {
              "internalType": "bool",
              "name": "revoked",
              "type": "bool"
            }
          ],
          "internalType": "struct CryptoBlessing.SenderBlessing",
          "name": "",
          "type": "tuple"
        },
        {
          "components": [
            {
              "internalType": "address",
              "name": "claimer",
              "type": "address"
            },
            {
              "internalType": "uint256",
              "name": "claimTimestamp",
              "type": "uint256"
            },
            {
              "internalType": "uint256",
              "name": "distributedAmount",
              "type": "uint256"
            },
            {
              "internalType": "uint256",
              "name": "claimAmount",
              "type": "uint256"
            },
            {
              "internalType": "uint256",
              "name": "taxAmount",
              "type": "uint256"
            },
            {
              "internalType": "uint256",
              "name": "CBTokenAwardToSenderAmount",
              "type": "uint256"
            }
          ],
          "internalType": "struct CryptoBlessing.BlessingClaimStatus[]",
          "name": "",
          "type": "tuple[]"
        }
      ],
      "stateMutability": "view",
      "type": "function"
    },
    {
      "inputs": [
        {
          "internalType": "string",
          "name": "image",
          "type": "string"
        }
      ],
      "name": "getBlessing",
      "outputs": [
        {
          "components": [
            {
              "internalType": "uint256",
              "name": "price",
              "type": "uint256"
            },
            {
              "internalType": "address",
              "name": "owner",
              "type": "address"
            },
            {
              "internalType": "uint8",
              "name": "deleted",
              "type": "uint8"
            },
            {
              "internalType": "uint256",
              "name": "taxRate",
              "type": "uint256"
            }
          ],
          "internalType": "struct CryptoBlessing.Blessing",
          "name": "",
          "type": "tuple"
        }
      ],
      "stateMutability": "view",
      "type": "function"
    },
    {
      "inputs": [
        {
          "internalType": "address",
          "name": "_blessingID",
          "type": "address"
        }
      ],
      "name": "getBlessingClaimingStatus",
      "outputs": [
        {
          "components": [
            {
              "internalType": "address",
              "name": "claimer",
              "type": "address"
            },
            {
              "internalType": "uint256",
              "name": "claimTimestamp",
              "type": "uint256"
            },
            {
              "internalType": "uint256",
              "name": "distributedAmount",
              "type": "uint256"
            },
            {
              "internalType": "uint256",
              "name": "claimAmount",
              "type": "uint256"
            },
            {
              "internalType": "uint256",
              "name": "taxAmount",
              "type": "uint256"
            },
            {
              "internalType": "uint256",
              "name": "CBTokenAwardToSenderAmount",
              "type": "uint256"
            }
          ],
          "internalType": "struct CryptoBlessing.BlessingClaimStatus[]",
          "name": "",
          "type": "tuple[]"
        }
      ],
      "stateMutability": "view",
      "type": "function"
    },
    {
      "inputs": [
        {
          "internalType": "address",
          "name": "_blessingID",
          "type": "address"
        }
      ],
      "name": "getBlessingPubkeyStatus",
      "outputs": [
        {
          "components": [
            {
              "internalType": "address",
              "name": "pubkey",
              "type": "address"
            },
            {
              "internalType": "bool",
              "name": "used",
              "type": "bool"
            }
          ],
          "internalType": "struct CryptoBlessing.ClaimPubkeyStatus[]",
          "name": "",
          "type": "tuple[]"
        }
      ],
      "stateMutability": "view",
      "type": "function"
    },
    {
      "inputs": [],
      "name": "getMyClaimedBlessings",
      "outputs": [
        {
          "components": [
            {
              "internalType": "address",
              "name": "sender",
              "type": "address"
            },
            {
              "internalType": "address",
              "name": "blessingID",
              "type": "address"
            },
            {
              "internalType": "string",
              "name": "blessingImage",
              "type": "string"
            },
            {
              "internalType": "uint256",
              "name": "claimTimestamp",
              "type": "uint256"
            },
            {
              "internalType": "uint256",
              "name": "claimAmount",
              "type": "uint256"
            },
            {
              "internalType": "uint256",
              "name": "taxAmount",
              "type": "uint256"
            }
          ],
          "internalType": "struct CryptoBlessing.ClaimerBlessing[]",
          "name": "",
          "type": "tuple[]"
        }
      ],
      "stateMutability": "view",
      "type": "function"
    },
    {
      "inputs": [],
      "name": "getMySendedBlessings",
      "outputs": [
        {
          "components": [
            {
              "internalType": "address",
              "name": "blessingID",
              "type": "address"
            },
            {
              "internalType": "string",
              "name": "blessingImage",
              "type": "string"
            },
            {
              "internalType": "uint256",
              "name": "sendTimestamp",
              "type": "uint256"
            },
            {
              "internalType": "uint256",
              "name": "tokenAmount",
              "type": "uint256"
            },
            {
              "internalType": "uint256",
              "name": "claimQuantity",
              "type": "uint256"
            },
            {
              "internalType": "enum CryptoBlessing.ClaimType",
              "name": "claimType",
              "type": "uint8"
            },
            {
              "internalType": "bool",
              "name": "revoked",
              "type": "bool"
            }
          ],
          "internalType": "struct CryptoBlessing.SenderBlessing[]",
          "name": "",
          "type": "tuple[]"
        }
      ],
      "stateMutability": "view",
      "type": "function"
    },
    {
      "inputs": [],
      "name": "owner",
      "outputs": [
        {
          "internalType": "address",
          "name": "",
          "type": "address"
        }
      ],
      "stateMutability": "view",
      "type": "function"
    },
    {
      "inputs": [],
      "name": "pause",
      "outputs": [],
      "stateMutability": "nonpayable",
      "type": "function"
    },
    {
      "inputs": [],
      "name": "paused",
      "outputs": [
        {
          "internalType": "bool",
          "name": "",
          "type": "bool"
        }
      ],
      "stateMutability": "view",
      "type": "function"
    },
    {
      "inputs": [],
      "name": "renounceOwnership",
      "outputs": [],
      "stateMutability": "nonpayable",
      "type": "function"
    },
    {
      "inputs": [
        {
          "internalType": "address",
          "name": "blessingID",
          "type": "address"
        }
      ],
      "name": "revokeBlessing",
      "outputs": [],
      "stateMutability": "nonpayable",
      "type": "function"
    },
    {
      "inputs": [
        {
          "internalType": "string",
          "name": "image",
          "type": "string"
        },
        {
          "internalType": "address",
          "name": "blessingID",
          "type": "address"
        },
        {
          "internalType": "uint256",
          "name": "tokenAmount",
          "type": "uint256"
        },
        {
          "internalType": "uint256",
          "name": "claimQuantity",
          "type": "uint256"
        },
        {
          "internalType": "enum CryptoBlessing.ClaimType",
          "name": "claimType",
          "type": "uint8"
        },
        {
          "internalType": "address[]",
          "name": "pubkeys",
          "type": "address[]"
        }
      ],
      "name": "sendBlessing",
      "outputs": [],
      "stateMutability": "nonpayable",
      "type": "function"
    },
    {
      "inputs": [
        {
          "internalType": "uint256",
          "name": "_CBTOKENAWARDRATIO",
          "type": "uint256"
        }
      ],
      "name": "setCBTOKENAWARDRATIO",
      "outputs": [],
      "stateMutability": "nonpayable",
      "type": "function"
    },
    {
      "inputs": [
        {
          "internalType": "uint256",
          "name": "_CLAIM_TAX_RATE",
          "type": "uint256"
        }
      ],
      "name": "setCLAIM_TAX_RATE",
      "outputs": [],
      "stateMutability": "nonpayable",
      "type": "function"
    },
    {
      "inputs": [
        {
          "internalType": "address",
          "name": "newOwner",
          "type": "address"
        }
      ],
      "name": "transferOwnership",
      "outputs": [],
      "stateMutability": "nonpayable",
      "type": "function"
    },
    {
      "inputs": [],
      "name": "unpause",
      "outputs": [],
      "stateMutability": "nonpayable",
      "type": "function"
    },
    {
      "inputs": [
        {
          "internalType": "address",
          "name": "nextVersionContractAddress",
          "type": "address"
        }
      ],
      "name": "upgradeToNextVersion",
      "outputs": [],
      "stateMutability": "nonpayable",
      "type": "function"
    }
  ],
  "bytecode": "0x608060405260058055600a6006556040516200450f3803806200450f8339810160408190526200002f9162000278565b6200003a336200014b565b6000805460ff60a01b1916905560018055604080516080810190915260538082526200007b9190620044bc60208301396200019b60201b62002cf11760201c565b620000c76040518060400160405280601481526020017f73656e64546f6b656e416464726573733a20257300000000000000000000000081525084620001e960201b62002d341760201c565b62000108604051806040016040528060128152602001714342546f6b656e416464726573733a20257360701b81525083620001e960201b62002d341760201c565b600280546001600160a01b039485166001600160a01b03199182161790915560038054938516938216939093179092556004805491909316911617905562000357565b600080546001600160a01b038381166001600160a01b0319831681178455604051919092169283917f8be0079c531659141344cd1fd0a4f28419497f9722a3daafe3b4186f6b6457e09190a35050565b620001e681604051602401620001b291906200030f565b60408051601f198184030181529190526020810180516001600160e01b0390811663104c13eb60e21b179091526200023a16565b50565b620002368282604051602401620002029291906200032b565b60408051601f198184030181529190526020810180516001600160e01b0390811663319af33360e01b179091526200023a16565b5050565b80516a636f6e736f6c652e6c6f67602083016000808483855afa5050505050565b80516001600160a01b03811681146200027357600080fd5b919050565b6000806000606084860312156200028d578283fd5b62000298846200025b565b9250620002a8602085016200025b565b9150620002b8604085016200025b565b90509250925092565b60008151808452815b81811015620002e857602081850181015186830182015201620002ca565b81811115620002fa5782602083870101525b50601f01601f19169290920160200192915050565b602081526000620003246020830184620002c1565b9392505050565b604081526000620003406040830185620002c1565b905060018060a01b03831660208301529392505050565b61415580620003676000396000f3fe6080604052600436106101135760003560e01c80638456cb59116100a0578063dbf3fb9e11610064578063dbf3fb9e146102f2578063dd03ff8f1461031f578063e64872181461034c578063e911b6821461036e578063f2fde38b1461038e57600080fd5b80638456cb59146102465780638da5cb5b1461025b578063aa387cfa14610283578063c4cf21e8146102a3578063d9c3e243146102d257600080fd5b80635526316a116100e75780635526316a146101a55780635c975abb146101c55780637054a2df146101ef578063715018a61461020f57806373fcd9961461022457600080fd5b80627384741461011857806323c563291461013a5780632f6f24c71461015a5780633f4ba83a14610190575b600080fd5b34801561012457600080fd5b5061013861013336600461399b565b6103ae565b005b34801561014657600080fd5b50610138610155366004613a96565b610c4a565b34801561016657600080fd5b5061017a6101753660046137a8565b610c57565b6040516101879190613c9d565b60405180910390f35b34801561019c57600080fd5b50610138610ce5565b3480156101b157600080fd5b506101386101c036600461386d565b610cf7565b3480156101d157600080fd5b50600054600160a01b900460ff166040519015158152602001610187565b6102026101fd3660046137f4565b610eae565b6040516101879190613efd565b34801561021b57600080fd5b50610138611c5d565b34801561023057600080fd5b50610239611c6f565b6040516101879190613d58565b34801561025257600080fd5b50610138611e04565b34801561026757600080fd5b506000546040516001600160a01b039091168152602001610187565b34801561028f57600080fd5b5061013861029e366004613a96565b611e14565b3480156102af57600080fd5b506102c36102be3660046137c2565b611e21565b60405161018793929190613e9d565b3480156102de57600080fd5b506101386102ed3660046137a8565b6121bc565b3480156102fe57600080fd5b5061031261030d366004613960565b6126d6565b6040516101879190613e66565b34801561032b57600080fd5b5061033f61033a3660046137a8565b61275b565b6040516101879190613c8a565b34801561035857600080fd5b50610361612804565b6040516101879190613cf7565b34801561037a57600080fd5b506101386103893660046137a8565b612938565b34801561039a57600080fd5b506101386103a93660046137a8565b612c78565b6103b6612d7d565b836000106104165760405162461bcd60e51b815260206004820152602260248201527f746f6b656e416d6f756e74206d7573742062652067726561746572207468616e604482015261020360f41b60648201526084015b60405180910390fd5b8260001080156104275750600d8311155b6104995760405162461bcd60e51b815260206004820152603e60248201527f636c61696d5175616e74697479206d757374206265206772656174657220746860448201527f616e203020616e64206c657373206f7220657175616c207468616e2031330000606482015260840161040d565b805183146104ff5760405162461bcd60e51b815260206004820152602d60248201527f636c61696d5175616e74697479206d75737420626520657175616c20746f207060448201526c0eac4d6caf2e65cd8cadccee8d609b1b606482015260840161040d565b60006007876040516105119190613c4a565b9081526040805160209281900383018120608082018352805480835260018201546001600160a01b03811695840195909552600160a01b90940460ff169282019290925260029091015460608201529150158015906105755750604081015160ff16155b6105c15760405162461bcd60e51b815260206004820152601860248201527f496e76616c696420626c657373696e6720737461747573210000000000000000604482015260640161040d565b80516105d9906105d2908690612dca565b8690612ddf565b6002546040516370a0823160e01b81523360048201526001600160a01b03909116906370a082319060240160206040518083038186803b15801561061c57600080fd5b505afa158015610630573d6000803e3d6000fd5b505050506040513d601f19601f820116820180604052508101906106549190613aae565b10156106c85760405162461bcd60e51b815260206004820152603e60248201527f596f757220746f6b656e20616d6f756e74206d7573742062652067726561746560448201527f72207468616e20796f752061726520747279696e6720746f2073656e64210000606482015260840161040d565b6002546040516323b872dd60e01b8152336004820152306024820152604481018790526001600160a01b03909116906323b872dd90606401602060405180830381600087803b15801561071a57600080fd5b505af115801561072e573d6000803e3d6000fd5b505050506040513d601f19601f820116820180604052508101906107529190613940565b61079e5760405162461bcd60e51b815260206004820152601c60248201527f5472616e7366657220746f20636f6e7472616374206661696c65642100000000604482015260640161040d565b600254602082015160608301516001600160a01b03909216916323b872dd9133916107ed906064906107e7906107d49083613fd9565b88516107e1908d90612dca565b90612dca565b90612deb565b6040516001600160e01b031960e086901b1681526001600160a01b0393841660048201529290911660248301526044820152606401602060405180830381600087803b15801561083c57600080fd5b505af1158015610850573d6000803e3d6000fd5b505050506040513d601f19601f820116820180604052508101906108749190613940565b6108d25760405162461bcd60e51b815260206004820152602960248201527f5472616e7366657220746f20746865206f776e6572206f6620626c657373696e60448201526867206661696c65642160b81b606482015260840161040d565b6002546001600160a01b03166323b872dd336108f66000546001600160a01b031690565b61091a60646107e787606001516107e189600001518d612dca90919063ffffffff16565b6040516001600160e01b031960e086901b1681526001600160a01b0393841660048201529290911660248301526044820152606401602060405180830381600087803b15801561096957600080fd5b505af115801561097d573d6000803e3d6000fd5b505050506040513d601f19601f820116820180604052508101906109a19190613940565b6109ed5760405162461bcd60e51b815260206004820181905260248201527f5472616e7366657220746f2074686520636f6e7472616374206661696c656421604482015260640161040d565b60086000336001600160a01b03166001600160a01b031681526020019081526020016000206040518060e00160405280886001600160a01b03168152602001898152602001428152602001878152602001868152602001856001811115610a6457634e487b7160e01b600052602160045260246000fd5b81526000602091820181905283546001808201865594825290829020835160069092020180546001600160a01b0319166001600160a01b0390921691909117815582820151805193949193610ac19392850192919091019061355d565b5060408201516002820155606082015160038201556080820151600482015560a082015160058201805460ff191660018381811115610b1057634e487b7160e01b600052602160045260246000fd5b021790555060c09190910151600590910180549115156101000261ff001990921691909117905560005b8251811015610bff57600b6000886001600160a01b03166001600160a01b031681526020019081526020016000206040518060400160405280858481518110610b9357634e487b7160e01b600052603260045260246000fd5b6020908102919091018101516001600160a01b039081168352600092820183905284546001810186559483529181902083519401805493909101511515600160a01b026001600160a81b0319909316939091169290921717905580610bf78161405b565b915050610b3a565b50604080513381526001600160a01b03881660208201527f9028f7dd664be64a65e420291fdb6b56dec3b01e5433aa9675727b383cf1e5bc910160405180910390a150505050505050565b610c52612df7565b600655565b6001600160a01b0381166000908152600b60209081526040808320805482518185028101850190935280835260609492939192909184015b82821015610cda57600084815260209081902060408051808201909152908401546001600160a01b0381168252600160a01b900460ff16151581830152825260019092019101610c8f565b505050509050919050565b610ced612df7565b610cf5612e51565b565b610cff612df7565b610d206040518060600160405280602281526020016140cd60229139612cf1565b60005b8151811015610ea9576040518060800160405280838381518110610d5757634e487b7160e01b600052603260045260246000fd5b6020026020010151600001518152602001838381518110610d8857634e487b7160e01b600052603260045260246000fd5b6020026020010151602001516001600160a01b03168152602001838381518110610dc257634e487b7160e01b600052603260045260246000fd5b60200260200101516040015160ff168152602001838381518110610df657634e487b7160e01b600052603260045260246000fd5b6020026020010151606001518152506007848381518110610e2757634e487b7160e01b600052603260045260246000fd5b6020026020010151604051610e3c9190613c4a565b9081526040805191829003602090810190922083518155918301516001830180549285015160ff16600160a01b026001600160a81b03199093166001600160a01b039092169190911791909117905560609091015160029091015580610ea18161405b565b915050610d23565b505050565b610ef96040518060c0016040528060006001600160a01b0316815260200160006001600160a01b03168152602001606081526020016000815260200160008152602001600081525090565b610f01612d7d565b60026001541415610f545760405162461bcd60e51b815260206004820152601f60248201527f5265656e7472616e637947756172643a207265656e7472616e742063616c6c00604482015260640161040d565b6002600181905550610f7f6040518060600160405280603181526020016140ef603191398686612ea6565b610f8a838386612eed565b610fcb5760405162461bcd60e51b8152602060048201526012602482015271496e76616c6964207369676e69747572652160701b604482015260640161040d565b610fff604051806040016040528060138152602001727369676e61747572652069732076616c69642160681b815250612cf1565b333b156110605760405162461bcd60e51b815260206004820152602960248201527f596f752063616e206e6f7420636c61696d20626c657373696e672066726f6d20604482015268636f6e74726163742160b81b606482015260840161040d565b6001600160a01b038516600090815260086020908152604080832080548251818502810185019093528083529192909190849084015b828210156111f35760008481526020908190206040805160e081019091526006850290910180546001600160a01b0316825260018101805492939192918401916110df90614020565b80601f016020809104026020016040519081016040528092919081815260200182805461110b90614020565b80156111585780601f1061112d57610100808354040283529160200191611158565b820191906000526020600020905b81548152906001019060200180831161113b57829003601f168201915b5050509183525050600282015460208201526003820154604082015260048201546060820152600582015460809091019060ff1660018111156111ab57634e487b7160e01b600052602160045260246000fd5b60018111156111ca57634e487b7160e01b600052602160045260246000fd5b815260059190910154610100900460ff1615156020918201529082526001929092019101611096565b505050509050600081511161121a5760405162461bcd60e51b815260040161040d90613e1c565b6112226135e1565b60005b82518110156112b057866001600160a01b031683828151811061125857634e487b7160e01b600052603260045260246000fd5b6020026020010151600001516001600160a01b0316141561129e5782818151811061129357634e487b7160e01b600052603260045260246000fd5b602002602001015191505b806112a88161405b565b915050611225565b5060c0810151156113035760405162461bcd60e51b815260206004820152601960248201527f5468697320626c657373696e67206973207265766f6b65642100000000000000604482015260640161040d565b60008160600151116113275760405162461bcd60e51b815260040161040d90613e1c565b6001600160a01b0386166000908152600a6020908152604080832080548251818502810185019093528083529192909190849084015b828210156113ce5760008481526020908190206040805160c0810182526006860290920180546001600160a01b031683526001808201548486015260028201549284019290925260038101546060840152600481015460808401526005015460a0830152908352909201910161135d565b50505050905081608001518151106114285760405162461bcd60e51b815260206004820152601b60248201527f5468657265206973206e6f206d6f726520626c657373696e6773210000000000604482015260640161040d565b6000805b825181101561151d57336001600160a01b031683828151811061145f57634e487b7160e01b600052603260045260246000fd5b6020026020010151600001516001600160a01b031614156114d25760405162461bcd60e51b815260206004820152602760248201527f596f75206861766520616c726561647920636c61696d6564207468697320626c604482015266657373696e672160c81b606482015260840161040d565b8281815181106114f257634e487b7160e01b600052603260045260246000fd5b602002602001015160400151826115099190613f8e565b9150806115158161405b565b91505061142c565b506000808460a00151600181111561154557634e487b7160e01b600052602160045260246000fd5b1415611565576080840151606085015161155e91612deb565b9050611609565b60018460a00151600181111561158b57634e487b7160e01b600052602160045260246000fd5b14156116095760006115ab8451866080015161305b90919063ffffffff16565b905060006115b9600a613067565b905081600114156115da5760608601516115d3908561305b565b9250611606565b61160360026107e1600a6107e7856107e1886107e78c8f6060015161305b90919063ffffffff16565b92505b50505b60006040518060c001604052808c6001600160a01b031681526020018b6001600160a01b03168152602001866020015181526020014281526020016116636006546103e86116579190613fd9565b6107e1866103e8612deb565b81526020016116836006546107e16103e887612deb90919063ffffffff16565b905233600090815260096020908152604080832080546001818101835591855293839020855160069095020180546001600160a01b039586166001600160a01b031991821617825584870151928201805493909616921691909117909355830151805193945084936116fb926002850192019061355d565b50606082015160038201556080820151600482015560a09091015160059182015554600090611736906107e185670de0b6b3a7640000612deb565b90506103e881111561174757506103e75b600a60008c6001600160a01b03166001600160a01b031681526020019081526020016000206040518060c00160405280336001600160a01b031681526020014281526020018581526020016117b16006546103e86117a59190613fd9565b6107e1886103e8612deb565b81526020016117d16006546107e16103e889612deb90919063ffffffff16565b815260209081018490528254600180820185556000948552938290208351600692830290910180546001600160a01b0319166001600160a01b0392831617815592840151948301949094556040830151600280840191909155606084015160038401556080840151600484015560a0909301516005909201919091559054905491169063a9059cbb90339061186c906117a5906103e8613fd9565b6040516001600160e01b031960e085901b1681526001600160a01b0390921660048301526024820152604401602060405180830381600087803b1580156118b257600080fd5b505af11580156118c6573d6000803e3d6000fd5b505050506040513d601f19601f820116820180604052508101906118ea9190613940565b6119365760405162461bcd60e51b815260206004820152601760248201527f436c61696d2074686520746f6b656e206661696c656421000000000000000000604482015260640161040d565b6002546001600160a01b031663a9059cbb6119596000546001600160a01b031690565b60065461196c906107e1886103e8612deb565b6040516001600160e01b031960e085901b1681526001600160a01b0390921660048301526024820152604401602060405180830381600087803b1580156119b257600080fd5b505af11580156119c6573d6000803e3d6000fd5b505050506040513d601f19601f820116820180604052508101906119ea9190613940565b611a2c5760405162461bcd60e51b815260206004820152601360248201527254616e7366657220746178206661696c65642160681b604482015260640161040d565b6003546040516370a0823160e01b815230600482015282916001600160a01b0316906370a082319060240160206040518083038186803b158015611a6f57600080fd5b505afa158015611a83573d6000803e3d6000fd5b505050506040513d601f19601f82011682018060405250810190611aa79190613aae565b10611b7e5760035460405163a9059cbb60e01b81526001600160a01b038e81166004830152602482018490529091169063a9059cbb90604401602060405180830381600087803b158015611afa57600080fd5b505af1158015611b0e573d6000803e3d6000fd5b505050506040513d601f19601f82011682018060405250810190611b329190613940565b611b7e5760405162461bcd60e51b815260206004820152601760248201527f617761726420434220746f6b656e73206661696c656421000000000000000000604482015260640161040d565b600480546020880151604051631e1d900360e31b81526001600160a01b039092169263f0ec801892611bb4923392909101613c66565b602060405180830381600087803b158015611bce57600080fd5b505af1158015611be2573d6000803e3d6000fd5b505050506040513d601f19601f82011682018060405250810190611c069190613aae565b50604080516001600160a01b03808f1682528d1660208201527f411a457db9208c2357cddce37558ebfedc401243648449843470687d4e901442910160405180910390a150600180559a9950505050505050505050565b611c65612df7565b610cf5600061309e565b336000908152600860209081526040808320805482518185028101850190935280835260609492939192909184015b82821015611dfb5760008481526020908190206040805160e081019091526006850290910180546001600160a01b031682526001810180549293919291840191611ce790614020565b80601f0160208091040260200160405190810160405280929190818152602001828054611d1390614020565b8015611d605780601f10611d3557610100808354040283529160200191611d60565b820191906000526020600020905b815481529060010190602001808311611d4357829003601f168201915b5050509183525050600282015460208201526003820154604082015260048201546060820152600582015460809091019060ff166001811115611db357634e487b7160e01b600052602160045260246000fd5b6001811115611dd257634e487b7160e01b600052602160045260246000fd5b815260059190910154610100900460ff1615156020918201529082526001929092019101611c9e565b50505050905090565b611e0c612df7565b610cf56130ee565b611e1c612df7565b600555565b604080516080810182526000808252602082018190529181018290526060810191909152611e4d6135e1565b6001600160a01b0384166000908152600860209081526040808320805482518185028101850190935280835260609493849084015b82821015611fdf5760008481526020908190206040805160e081019091526006850290910180546001600160a01b031682526001810180549293919291840191611ecb90614020565b80601f0160208091040260200160405190810160405280929190818152602001828054611ef790614020565b8015611f445780601f10611f1957610100808354040283529160200191611f44565b820191906000526020600020905b815481529060010190602001808311611f2757829003601f168201915b5050509183525050600282015460208201526003820154604082015260048201546060820152600582015460809091019060ff166001811115611f9757634e487b7160e01b600052602160045260246000fd5b6001811115611fb657634e487b7160e01b600052602160045260246000fd5b815260059190910154610100900460ff1615156020918201529082526001929092019101611e82565b505050509050611fed6135e1565b60005b825181101561207b57866001600160a01b031683828151811061202357634e487b7160e01b600052603260045260246000fd5b6020026020010151600001516001600160a01b031614156120695782818151811061205e57634e487b7160e01b600052603260045260246000fd5b602002602001015191505b806120738161405b565b915050611ff0565b5060008160600151116120a05760405162461bcd60e51b815260040161040d90613e1c565b6001600160a01b0386166000908152600a6020908152604080832080548251818502810185019093528083529192909190849084015b828210156121475760008481526020908190206040805160c0810182526006860290920180546001600160a01b031683526001808201548486015260028201549284019290925260038101546060840152600481015460808401526005015460a083015290835290920191016120d6565b505050509050600782602001516040516121619190613c4a565b90815260408051602092819003830181206080820183528054825260018101546001600160a01b03811694830194909452600160a01b90930460ff169181019190915260029091015460608201529891975095509350505050565b6121c4612d7d565b6001600160a01b0381166000908152600a6020908152604080832080548251818502810185019093528083529192909190849084015b8282101561226b5760008481526020908190206040805160c0810182526006860290920180546001600160a01b031683526001808201548486015260028201549284019290925260038101546060840152600481015460808401526005015460a083015290835290920191016121fa565b50505050905080516000146122e85760405162461bcd60e51b815260206004820152603c60248201527f596f757220626c657373696e6720697320636c61696d696e67206279206f746860448201527f6572732e2043616e206e6f74207265766f6b6520616e796d6f72652100000000606482015260840161040d565b33600090815260086020908152604080832080548251818502810185019093528083529192909190849084015b828210156124725760008481526020908190206040805160e081019091526006850290910180546001600160a01b03168252600181018054929391929184019161235e90614020565b80601f016020809104026020016040519081016040528092919081815260200182805461238a90614020565b80156123d75780601f106123ac576101008083540402835291602001916123d7565b820191906000526020600020905b8154815290600101906020018083116123ba57829003601f168201915b5050509183525050600282015460208201526003820154604082015260048201546060820152600582015460809091019060ff16600181111561242a57634e487b7160e01b600052602160045260246000fd5b600181111561244957634e487b7160e01b600052602160045260246000fd5b815260059190910154610100900460ff1615156020918201529082526001929092019101612315565b50505050905060008151116124995760405162461bcd60e51b815260040161040d90613e1c565b6124a16135e1565b6000805b835181101561253357856001600160a01b03168482815181106124d857634e487b7160e01b600052603260045260246000fd5b6020026020010151600001516001600160a01b031614156125215783818151811061251357634e487b7160e01b600052603260045260246000fd5b602002602001015192508091505b8061252b8161405b565b9150506124a5565b5060008260600151116125585760405162461bcd60e51b815260040161040d90613e1c565b600254606083015160405163a9059cbb60e01b815233600482015260248101919091526001600160a01b039091169063a9059cbb90604401602060405180830381600087803b1580156125aa57600080fd5b505af11580156125be573d6000803e3d6000fd5b505050506040513d601f19601f820116820180604052508101906125e29190613940565b61262e5760405162461bcd60e51b815260206004820152601f60248201527f5472616e73666572206261636b20746f2073656e646572206661696c65642100604482015260640161040d565b3360009081526008602052604090208054600191908390811061266157634e487b7160e01b600052603260045260246000fd5b600091825260209182902060056006909202010180549215156101000261ff001990931692909217909155604080513381526001600160a01b038816928101929092527faf0a59ad678f81ba23bb66973fedd52a279df960fc232c3bd4f56faf8d7945fb910160405180910390a15050505050565b6040805160808101825260008082526020820181905281830181905260608201529051600790612707908490613c4a565b90815260408051602092819003830181206080820183528054825260018101546001600160a01b03811694830194909452600160a01b90930460ff1691810191909152600290910154606082015292915050565b6001600160a01b0381166000908152600a60209081526040808320805482518185028101850190935280835260609492939192909184015b82821015610cda5760008481526020908190206040805160c0810182526006860290920180546001600160a01b031683526001808201548486015260028201549284019290925260038101546060840152600481015460808401526005015460a08301529083529092019101612793565b336000908152600960209081526040808320805482518185028101850190935280835260609492939192909184015b82821015611dfb5760008481526020908190206040805160c0810182526006860290920180546001600160a01b039081168452600182015416938301939093526002830180549293929184019161288990614020565b80601f01602080910402602001604051908101604052809291908181526020018280546128b590614020565b80156129025780601f106128d757610100808354040283529160200191612902565b820191906000526020600020905b8154815290600101906020018083116128e557829003601f168201915b50505050508152602001600382015481526020016004820154815260200160058201548152505081526020019060010190612833565b612940612df7565b612948613131565b6003546040516370a0823160e01b81523060048201526001600160a01b039091169063a9059cbb90839083906370a082319060240160206040518083038186803b15801561299557600080fd5b505afa1580156129a9573d6000803e3d6000fd5b505050506040513d601f19601f820116820180604052508101906129cd9190613aae565b6040516001600160e01b031960e085901b1681526001600160a01b0390921660048301526024820152604401602060405180830381600087803b158015612a1357600080fd5b505af1158015612a27573d6000803e3d6000fd5b505050506040513d601f19601f82011682018060405250810190612a4b9190613940565b612aac5760405162461bcd60e51b815260206004820152602c60248201527f5472616e736665722043425420746f206e6578742076657273696f6e2061646460448201526b72657373206661696c65642160a01b606482015260840161040d565b6002546001600160a01b031663a9059cbb612acf6000546001600160a01b031690565b6002546040516370a0823160e01b81523060048201526001600160a01b03909116906370a082319060240160206040518083038186803b158015612b1257600080fd5b505afa158015612b26573d6000803e3d6000fd5b505050506040513d601f19601f82011682018060405250810190612b4a9190613aae565b6040516001600160e01b031960e085901b1681526001600160a01b0390921660048301526024820152604401602060405180830381600087803b158015612b9057600080fd5b505af1158015612ba4573d6000803e3d6000fd5b505050506040513d601f19601f82011682018060405250810190612bc89190613940565b612c145760405162461bcd60e51b815260206004820152601e60248201527f5472616e73666572204255534420746f206f776e6572206661696c6564210000604482015260640161040d565b6004805460405163f2fde38b60e01b81526001600160a01b038481169382019390935291169063f2fde38b90602401600060405180830381600087803b158015612c5d57600080fd5b505af1158015612c71573d6000803e3d6000fd5b5050505050565b612c80612df7565b6001600160a01b038116612ce55760405162461bcd60e51b815260206004820152602660248201527f4f776e61626c653a206e6577206f776e657220697320746865207a65726f206160448201526564647265737360d01b606482015260840161040d565b612cee8161309e565b50565b612cee81604051602401612d059190613dac565b60408051601f198184030181529190526020810180516001600160e01b031663104c13eb60e21b179052613181565b612d798282604051602401612d4a929190613dbf565b60408051601f198184030181529190526020810180516001600160e01b031663319af33360e01b179052613181565b5050565b600054600160a01b900460ff1615610cf55760405162461bcd60e51b815260206004820152601060248201526f14185d5cd8589b194e881c185d5cd95960821b604482015260640161040d565b6000612dd68284613fba565b90505b92915050565b6000612dd68284613f8e565b6000612dd68284613fa6565b6000546001600160a01b03163314610cf55760405162461bcd60e51b815260206004820181905260248201527f4f776e61626c653a2063616c6c6572206973206e6f7420746865206f776e6572604482015260640161040d565b612e59613131565b6000805460ff60a01b191690557f5db9ee0a495bf2e6ff9c91a7834c1ba4fdd244a5e8aa4e537bd38aeae4b073aa335b6040516001600160a01b03909116815260200160405180910390a1565b610ea9838383604051602401612ebe93929190613de9565b60408051601f198184030181529190526020810180516001600160e01b03166307e763af60e51b179052613181565b600080612efa85856131a2565b905060005b6001600160a01b0384166000908152600b602052604090205481101561304d576001600160a01b038481166000908152600b6020526040902080549184169183908110612f5c57634e487b7160e01b600052603260045260246000fd5b6000918252602090912001546001600160a01b0316148015612fc957506001600160a01b0384166000908152600b60205260409020805482908110612fb157634e487b7160e01b600052603260045260246000fd5b600091825260209091200154600160a01b900460ff16155b1561303b576001600160a01b0384166000908152600b602052604090208054600191908390811061300a57634e487b7160e01b600052603260045260246000fd5b60009182526020909120018054911515600160a01b0260ff60a01b1990921691909117905550600191506130549050565b806130458161405b565b915050612eff565b5060009150505b9392505050565b6000612dd68284613fd9565b60008082613076600143613fd9565b613081919040614076565b9050801580613090575080600a145b15612dd95750600192915050565b600080546001600160a01b038381166001600160a01b0319831681178455604051919092169283917f8be0079c531659141344cd1fd0a4f28419497f9722a3daafe3b4186f6b6457e09190a35050565b6130f6612d7d565b6000805460ff60a01b1916600160a01b1790557f62e78cea01bee320cd4e420270b5ea74000d11b0c9f74754ebdbfc544b05a258612e893390565b600054600160a01b900460ff16610cf55760405162461bcd60e51b815260206004820152601460248201527314185d5cd8589b194e881b9bdd081c185d5cd95960621b604482015260640161040d565b80516a636f6e736f6c652e6c6f67602083016000808483855afa5050505050565b60008060006131b185856131c6565b915091506131be81613236565b509392505050565b6000808251604114156131fd5760208301516040840151606085015160001a6131f187828585613437565b9450945050505061322f565b825160401415613227576020830151604084015161321c868383613524565b93509350505061322f565b506000905060025b9250929050565b600081600481111561325857634e487b7160e01b600052602160045260246000fd5b14156132615750565b600181600481111561328357634e487b7160e01b600052602160045260246000fd5b14156132d15760405162461bcd60e51b815260206004820152601860248201527f45434453413a20696e76616c6964207369676e61747572650000000000000000604482015260640161040d565b60028160048111156132f357634e487b7160e01b600052602160045260246000fd5b14156133415760405162461bcd60e51b815260206004820152601f60248201527f45434453413a20696e76616c6964207369676e6174757265206c656e67746800604482015260640161040d565b600381600481111561336357634e487b7160e01b600052602160045260246000fd5b14156133bc5760405162461bcd60e51b815260206004820152602260248201527f45434453413a20696e76616c6964207369676e6174757265202773272076616c604482015261756560f01b606482015260840161040d565b60048160048111156133de57634e487b7160e01b600052602160045260246000fd5b1415612cee5760405162461bcd60e51b815260206004820152602260248201527f45434453413a20696e76616c6964207369676e6174757265202776272076616c604482015261756560f01b606482015260840161040d565b6000807f7fffffffffffffffffffffffffffffff5d576e7357a4501ddfe92f46681b20a083111561346e575060009050600361351b565b8460ff16601b1415801561348657508460ff16601c14155b15613497575060009050600461351b565b6040805160008082526020820180845289905260ff881692820192909252606081018690526080810185905260019060a0016020604051602081039080840390855afa1580156134eb573d6000803e3d6000fd5b5050604051601f1901519150506001600160a01b0381166135145760006001925092505061351b565b9150600090505b94509492505050565b6000806001600160ff1b0383168161354160ff86901c601b613f8e565b905061354f87828885613437565b935093505050935093915050565b82805461356990614020565b90600052602060002090601f01602090048101928261358b57600085556135d1565b82601f106135a457805160ff19168380011785556135d1565b828001600101855582156135d1579182015b828111156135d15782518255916020019190600101906135b6565b506135dd929150613646565b5090565b6040518060e0016040528060006001600160a01b03168152602001606081526020016000815260200160008152602001600081526020016000600181111561363957634e487b7160e01b600052602160045260246000fd5b8152600060209091015290565b5b808211156135dd5760008155600101613647565b600067ffffffffffffffff831115613675576136756140b6565b613688601f8401601f1916602001613f39565b905082815283838301111561369c57600080fd5b828260208301376000602084830101529392505050565b80356001600160a01b03811681146136ca57600080fd5b919050565b600082601f8301126136df578081fd5b813560206136f46136ef83613f6a565b613f39565b80838252828201915082860187848660071b8901011115613713578586fd5b855b8581101561377c57608080838b03121561372d578788fd5b613735613f10565b833581526137448785016136b3565b8782015260408085013560ff8116811461375c578a8bfd5b908201526060848101359082015285529385019390910190600101613715565b5090979650505050505050565b600082601f830112613799578081fd5b612dd68383356020850161365b565b6000602082840312156137b9578081fd5b612dd6826136b3565b600080604083850312156137d4578081fd5b6137dd836136b3565b91506137eb602084016136b3565b90509250929050565b60008060008060808587031215613809578182fd5b613812856136b3565b9350613820602086016136b3565b925060408501359150606085013567ffffffffffffffff811115613842578182fd5b8501601f81018713613852578182fd5b6138618782356020840161365b565b91505092959194509250565b6000806040838503121561387f578182fd5b823567ffffffffffffffff80821115613896578384fd5b818501915085601f8301126138a9578384fd5b813560206138b96136ef83613f6a565b8083825282820191508286018a848660051b89010111156138d8578889fd5b885b85811015613911578135878111156138f0578a8bfd5b6138fe8d87838c0101613789565b85525092840192908401906001016138da565b50909750505086013592505080821115613929578283fd5b50613936858286016136cf565b9150509250929050565b600060208284031215613951578081fd5b81518015158114613054578182fd5b600060208284031215613971578081fd5b813567ffffffffffffffff811115613987578182fd5b61399384828501613789565b949350505050565b60008060008060008060c087890312156139b3578384fd5b863567ffffffffffffffff808211156139ca578586fd5b6139d68a838b01613789565b9750602091506139e7828a016136b3565b96506040890135955060608901359450608089013560028110613a08578485fd5b935060a089013581811115613a1b578384fd5b89019050601f81018a13613a2d578283fd5b8035613a3b6136ef82613f6a565b8082825284820191508484018d868560051b8701011115613a5a578687fd5b8694505b83851015613a8357613a6f816136b3565b835260019490940193918501918501613a5e565b5080955050505050509295509295509295565b600060208284031215613aa7578081fd5b5035919050565b600060208284031215613abf578081fd5b5051919050565b6000815180845260208085019450808401835b83811015613b3257815180516001600160a01b03168852838101518489015260408082015190890152606080820151908901526080808201519089015260a0908101519088015260c09096019590820190600101613ad9565b509495945050505050565b60008151808452613b55816020860160208601613ff0565b601f01601f19169290920160200192915050565b600060018060a01b0380835116845280602084015116602085015250604082015160c06040850152613b9e60c0850182613b3d565b9050606083015160608501526080830151608085015260a083015160a08501528091505092915050565b60018060a01b0381511682526000602082015160e06020850152613bef60e0850182613b3d565b905060408301516040850152606083015160608501526080830151608085015260a083015160028110613c3057634e487b7160e01b83526021600452602483fd5b8060a08601525060c08301516131be60c086018215159052565b60008251613c5c818460208701613ff0565b9190910192915050565b6001600160a01b038316815260406020820181905260009061399390830184613b3d565b602081526000612dd66020830184613ac6565b602080825282518282018190526000919060409081850190868401855b82811015613cea57815180516001600160a01b031685528601511515868501529284019290850190600101613cba565b5091979650505050505050565b6000602080830181845280855180835260408601915060408160051b8701019250838701855b82811015613d4b57603f19888603018452613d39858351613b69565b94509285019290850190600101613d1d565b5092979650505050505050565b6000602080830181845280855180835260408601915060408160051b8701019250838701855b82811015613d4b57603f19888603018452613d9a858351613bc8565b94509285019290850190600101613d7e565b602081526000612dd66020830184613b3d565b604081526000613dd26040830185613b3d565b905060018060a01b03831660208301529392505050565b606081526000613dfc6060830186613b3d565b6001600160a01b0394851660208401529290931660409091015292915050565b6020808252602a908201527f5468657265206973206e6f20626c657373696e6720666f756e64206f6e20746860408201526969732073656e6465722160b01b606082015260800190565b815181526020808301516001600160a01b03169082015260408083015160ff16908201526060808301519082015260808101612dd9565b835181526020808501516001600160a01b03169082015260408085015160ff16908201526060808501519082015260c060808201526000613ee160c0830185613bc8565b82810360a0840152613ef38185613ac6565b9695505050505050565b602081526000612dd66020830184613b69565b6040516080810167ffffffffffffffff81118282101715613f3357613f336140b6565b60405290565b604051601f8201601f1916810167ffffffffffffffff81118282101715613f6257613f626140b6565b604052919050565b600067ffffffffffffffff821115613f8457613f846140b6565b5060051b60200190565b60008219821115613fa157613fa161408a565b500190565b600082613fb557613fb56140a0565b500490565b6000816000190483118215151615613fd457613fd461408a565b500290565b600082821015613feb57613feb61408a565b500390565b60005b8381101561400b578181015183820152602001613ff3565b8381111561401a576000848401525b50505050565b600181811c9082168061403457607f821691505b6020821081141561405557634e487b7160e01b600052602260045260246000fd5b50919050565b600060001982141561406f5761406f61408a565b5060010190565b600082614085576140856140a0565b500690565b634e487b7160e01b600052601160045260246000fd5b634e487b7160e01b600052601260045260246000fd5b634e487b7160e01b600052604160045260246000fdfe737461727420746f2061646420626c657373696e6720746f2074686520706f6f6c21737461727420746f20636c61696d20626c657373696e67212073656e6465723a25732c20626c657373696e6749443a2573a2646970667358221220d220975143840aa48925d7745ec513ed87102489bd1b2cf6a8029600e0cee4d564736f6c63430008040033426c657373696e6720697320746865206d6f737420756e6976657273616c2068756d616e2065787072657373696f6e206f6620656d6f74696f6e2c20616e6420776520617265204e4654697a696e6720697421",
  "linkReferences": {},
  "deployedLinkReferences": {}
}