{
  "_format": "hh-sol-artifact-1",
  "contractName": "CryptoBlessingNFT",
  "sourceName": "contracts/CryptoBlessingNFT.sol",
  "abi": [
    {
      "inputs": [],
      "stateMutability": "nonpayable",
      "type": "constructor"
    },
    {
      "anonymous": false,
      "inputs": [
        {
          "indexed": true,
          "internalType": "address",
          "name": "owner",
          "type": "address"
        },
        {
          "indexed": true,
          "internalType": "address",
          "name": "approved",
          "type": "address"
        },
        {
          "indexed": true,
          "internalType": "uint256",
          "name": "tokenId",
          "type": "uint256"
        }
      ],
      "name": "Approval",
      "type": "event"
    },
    {
      "anonymous": false,
      "inputs": [
        {
          "indexed": true,
          "internalType": "address",
          "name": "owner",
          "type": "address"
        },
        {
          "indexed": true,
          "internalType": "address",
          "name": "operator",
          "type": "address"
        },
        {
          "indexed": false,
          "internalType": "bool",
          "name": "approved",
          "type": "bool"
        }
      ],
      "name": "ApprovalForAll",
      "type": "event"
    },
    {
      "anonymous": false,
      "inputs": [
        {
          "indexed": true,
          "internalType": "address",
          "name": "previousOwner",
          "type": "address"
        },
        {
          "indexed": true,
          "internalType": "address",
          "name": "newOwner",
          "type": "address"
        }
      ],
      "name": "OwnershipTransferred",
      "type": "event"
    },
    {
      "anonymous": false,
      "inputs": [
        {
          "indexed": true,
          "internalType": "address",
          "name": "from",
          "type": "address"
        },
        {
          "indexed": true,
          "internalType": "address",
          "name": "to",
          "type": "address"
        },
        {
          "indexed": true,
          "internalType": "uint256",
          "name": "tokenId",
          "type": "uint256"
        }
      ],
      "name": "Transfer",
      "type": "event"
    },
    {
      "inputs": [
        {
          "internalType": "address",
          "name": "to",
          "type": "address"
        },
        {
          "internalType": "uint256",
          "name": "tokenId",
          "type": "uint256"
        }
      ],
      "name": "approve",
      "outputs": [],
      "stateMutability": "nonpayable",
      "type": "function"
    },
    {
      "inputs": [
        {
          "internalType": "address",
          "name": "claimer",
          "type": "address"
        },
        {
          "internalType": "string",
          "name": "blessingURI",
          "type": "string"
        }
      ],
      "name": "awardBlessingNFT",
      "outputs": [
        {
          "internalType": "uint256",
          "name": "",
          "type": "uint256"
        }
      ],
      "stateMutability": "nonpayable",
      "type": "function"
    },
    {
      "inputs": [
        {
          "internalType": "address",
          "name": "owner",
          "type": "address"
        }
      ],
      "name": "balanceOf",
      "outputs": [
        {
          "internalType": "uint256",
          "name": "",
          "type": "uint256"
        }
      ],
      "stateMutability": "view",
      "type": "function"
    },
    {
      "inputs": [
        {
          "internalType": "uint256",
          "name": "tokenId",
          "type": "uint256"
        }
      ],
      "name": "getApproved",
      "outputs": [
        {
          "internalType": "address",
          "name": "",
          "type": "address"
        }
      ],
      "stateMutability": "view",
      "type": "function"
    },
    {
      "inputs": [],
      "name": "getMyBlessingsURI",
      "outputs": [
        {
          "internalType": "string[]",
          "name": "",
          "type": "string[]"
        }
      ],
      "stateMutability": "view",
      "type": "function"
    },
    {
      "inputs": [
        {
          "internalType": "address",
          "name": "owner",
          "type": "address"
        },
        {
          "internalType": "address",
          "name": "operator",
          "type": "address"
        }
      ],
      "name": "isApprovedForAll",
      "outputs": [
        {
          "internalType": "bool",
          "name": "",
          "type": "bool"
        }
      ],
      "stateMutability": "view",
      "type": "function"
    },
    {
      "inputs": [],
      "name": "name",
      "outputs": [
        {
          "internalType": "string",
          "name": "",
          "type": "string"
        }
      ],
      "stateMutability": "view",
      "type": "function"
    },
    {
      "inputs": [],
      "name": "owner",
      "outputs": [
        {
          "internalType": "address",
          "name": "",
          "type": "address"
        }
      ],
      "stateMutability": "view",
      "type": "function"
    },
    {
      "inputs": [
        {
          "internalType": "uint256",
          "name": "tokenId",
          "type": "uint256"
        }
      ],
      "name": "ownerOf",
      "outputs": [
        {
          "internalType": "address",
          "name": "",
          "type": "address"
        }
      ],
      "stateMutability": "view",
      "type": "function"
    },
    {
      "inputs": [],
      "name": "renounceOwnership",
      "outputs": [],
      "stateMutability": "nonpayable",
      "type": "function"
    },
    {
      "inputs": [
        {
          "internalType": "address",
          "name": "from",
          "type": "address"
        },
        {
          "internalType": "address",
          "name": "to",
          "type": "address"
        },
        {
          "internalType": "uint256",
          "name": "tokenId",
          "type": "uint256"
        }
      ],
      "name": "safeTransferFrom",
      "outputs": [],
      "stateMutability": "nonpayable",
      "type": "function"
    },
    {
      "inputs": [
        {
          "internalType": "address",
          "name": "from",
          "type": "address"
        },
        {
          "internalType": "address",
          "name": "to",
          "type": "address"
        },
        {
          "internalType": "uint256",
          "name": "tokenId",
          "type": "uint256"
        },
        {
          "internalType": "bytes",
          "name": "data",
          "type": "bytes"
        }
      ],
      "name": "safeTransferFrom",
      "outputs": [],
      "stateMutability": "nonpayable",
      "type": "function"
    },
    {
      "inputs": [
        {
          "internalType": "address",
          "name": "operator",
          "type": "address"
        },
        {
          "internalType": "bool",
          "name": "approved",
          "type": "bool"
        }
      ],
      "name": "setApprovalForAll",
      "outputs": [],
      "stateMutability": "nonpayable",
      "type": "function"
    },
    {
      "inputs": [
        {
          "internalType": "bytes4",
          "name": "interfaceId",
          "type": "bytes4"
        }
      ],
      "name": "supportsInterface",
      "outputs": [
        {
          "internalType": "bool",
          "name": "",
          "type": "bool"
        }
      ],
      "stateMutability": "view",
      "type": "function"
    },
    {
      "inputs": [],
      "name": "symbol",
      "outputs": [
        {
          "internalType": "string",
          "name": "",
          "type": "string"
        }
      ],
      "stateMutability": "view",
      "type": "function"
    },
    {
      "inputs": [
        {
          "internalType": "uint256",
          "name": "tokenId",
          "type": "uint256"
        }
      ],
      "name": "tokenURI",
      "outputs": [
        {
          "internalType": "string",
          "name": "",
          "type": "string"
        }
      ],
      "stateMutability": "view",
      "type": "function"
    },
    {
      "inputs": [
        {
          "internalType": "address",
          "name": "from",
          "type": "address"
        },
        {
          "internalType": "address",
          "name": "to",
          "type": "address"
        },
        {
          "internalType": "uint256",
          "name": "tokenId",
          "type": "uint256"
        }
      ],
      "name": "transferFrom",
      "outputs": [],
      "stateMutability": "nonpayable",
      "type": "function"
    },
    {
      "inputs": [
        {
          "internalType": "address",
          "name": "newOwner",
          "type": "address"
        }
      ],
      "name": "transferOwnership",
      "outputs": [],
      "stateMutability": "nonpayable",
      "type": "function"
    }
  ],
  "bytecode": "0x60806040523480156200001157600080fd5b50604080518082018252601181527010dc9e5c1d1bd09b195cdcda5b99d39195607a1b60208083019182528351808501909452600584526410d093919560da1b9084015281519192916200006891600091620000f7565b5080516200007e906001906020840190620000f7565b5050506200009b62000095620000a160201b60201c565b620000a5565b620001da565b3390565b600780546001600160a01b038381166001600160a01b0319831681179093556040519116919082907f8be0079c531659141344cd1fd0a4f28419497f9722a3daafe3b4186f6b6457e090600090a35050565b82805462000105906200019d565b90600052602060002090601f01602090048101928262000129576000855562000174565b82601f106200014457805160ff191683800117855562000174565b8280016001018555821562000174579182015b828111156200017457825182559160200191906001019062000157565b506200018292915062000186565b5090565b5b8082111562000182576000815560010162000187565b600181811c90821680620001b257607f821691505b60208210811415620001d457634e487b7160e01b600052602260045260246000fd5b50919050565b61191380620001ea6000396000f3fe608060405234801561001057600080fd5b50600436106101165760003560e01c80638da5cb5b116100a2578063b88d4fde11610071578063b88d4fde1461023b578063c87b56dd1461024e578063e985e9c514610261578063f0ec80181461029d578063f2fde38b146102b057600080fd5b80638da5cb5b146101fa57806395d89b411461020b578063a22cb46514610213578063a22e75121461022657600080fd5b806323b872dd116100e957806323b872dd1461019857806342842e0e146101ab5780636352211e146101be57806370a08231146101d1578063715018a6146101f257600080fd5b806301ffc9a71461011b57806306fdde0314610143578063081812fc14610158578063095ea7b314610183575b600080fd5b61012e6101293660046115b0565b6102c3565b60405190151581526020015b60405180910390f35b61014b610315565b60405161013a91906116f9565b61016b6101663660046115e8565b6103a7565b6040516001600160a01b03909116815260200161013a565b610196610191366004611587565b6103ce565b005b6101966101a636600461143a565b6104e9565b6101966101b936600461143a565b61051a565b61016b6101cc3660046115e8565b610535565b6101e46101df3660046113ee565b610595565b60405190815260200161013a565b61019661061b565b6007546001600160a01b031661016b565b61014b61062f565b6101966102213660046114ee565b61063e565b61022e61064d565b60405161013a9190611698565b610196610249366004611475565b61078b565b61014b61025c3660046115e8565b6107c3565b61012e61026f366004611408565b6001600160a01b03918216600090815260056020908152604080832093909416825291909152205460ff1690565b6101e46102ab366004611528565b6108d4565b6101966102be3660046113ee565b61093f565b60006001600160e01b031982166380ac58cd60e01b14806102f457506001600160e01b03198216635b5e139f60e01b145b8061030f57506301ffc9a760e01b6001600160e01b03198316145b92915050565b6060600080546103249061181b565b80601f01602080910402602001604051908101604052809291908181526020018280546103509061181b565b801561039d5780601f106103725761010080835404028352916020019161039d565b820191906000526020600020905b81548152906001019060200180831161038057829003601f168201915b5050505050905090565b60006103b2826109b8565b506000908152600460205260409020546001600160a01b031690565b60006103d982610535565b9050806001600160a01b0316836001600160a01b0316141561044c5760405162461bcd60e51b815260206004820152602160248201527f4552433732313a20617070726f76616c20746f2063757272656e74206f776e656044820152603960f91b60648201526084015b60405180910390fd5b336001600160a01b03821614806104685750610468813361026f565b6104da5760405162461bcd60e51b815260206004820152603e60248201527f4552433732313a20617070726f76652063616c6c6572206973206e6f7420746f60448201527f6b656e206f776e6572206e6f7220617070726f76656420666f7220616c6c00006064820152608401610443565b6104e48383610a17565b505050565b6104f33382610a85565b61050f5760405162461bcd60e51b81526004016104439061175e565b6104e4838383610b03565b6104e48383836040518060200160405280600081525061078b565b6000818152600260205260408120546001600160a01b03168061030f5760405162461bcd60e51b8152602060048201526018602482015277115490cdcc8c4e881a5b9d985b1a59081d1bdad95b88125160421b6044820152606401610443565b60006001600160a01b0382166105ff5760405162461bcd60e51b815260206004820152602960248201527f4552433732313a2061646472657373207a65726f206973206e6f7420612076616044820152683634b21037bbb732b960b91b6064820152608401610443565b506001600160a01b031660009081526003602052604090205490565b610623610c9f565b61062d6000610cf9565b565b6060600180546103249061181b565b610649338383610d4b565b5050565b3360009081526009602090815260408083208054825181850281018501909352808352606094938301828280156106a357602002820191906000526020600020905b81548152602001906001019080831161068f575b505050505090506000815167ffffffffffffffff8111156106d457634e487b7160e01b600052604160045260246000fd5b60405190808252806020026020018201604052801561070757816020015b60608152602001906001900390816106f25790505b50905060005b82518110156107845761074683828151811061073957634e487b7160e01b600052603260045260246000fd5b60200260200101516107c3565b82828151811061076657634e487b7160e01b600052603260045260246000fd5b6020026020010181905250808061077c90611856565b91505061070d565b5092915050565b6107953383610a85565b6107b15760405162461bcd60e51b81526004016104439061175e565b6107bd84848484610e1a565b50505050565b60606107ce826109b8565b600082815260066020526040812080546107e79061181b565b80601f01602080910402602001604051908101604052809291908181526020018280546108139061181b565b80156108605780601f1061083557610100808354040283529160200191610860565b820191906000526020600020905b81548152906001019060200180831161084357829003601f168201915b50505050509050600061087e60408051602081019091526000815290565b9050805160001415610891575092915050565b8151156108c35780826040516020016108ab92919061162c565b60405160208183030381529060405292505050919050565b6108cc84610e4d565b949350505050565b60006108de610c9f565b60006108e960085490565b90506108f58482610ec0565b6108ff8184611002565b6001600160a01b038416600090815260096020908152604082208054600181018255908352912001819055610938600880546001019055565b9392505050565b610947610c9f565b6001600160a01b0381166109ac5760405162461bcd60e51b815260206004820152602660248201527f4f776e61626c653a206e6577206f776e657220697320746865207a65726f206160448201526564647265737360d01b6064820152608401610443565b6109b581610cf9565b50565b6000818152600260205260409020546001600160a01b03166109b55760405162461bcd60e51b8152602060048201526018602482015277115490cdcc8c4e881a5b9d985b1a59081d1bdad95b88125160421b6044820152606401610443565b600081815260046020526040902080546001600160a01b0319166001600160a01b0384169081179091558190610a4c82610535565b6001600160a01b03167f8c5be1e5ebec7d5bd14f71427d1e84f3dd0314c0f7b2291e5b200ac8c7c3b92560405160405180910390a45050565b600080610a9183610535565b9050806001600160a01b0316846001600160a01b03161480610ad857506001600160a01b0380821660009081526005602090815260408083209388168352929052205460ff165b806108cc5750836001600160a01b0316610af1846103a7565b6001600160a01b031614949350505050565b826001600160a01b0316610b1682610535565b6001600160a01b031614610b7a5760405162461bcd60e51b815260206004820152602560248201527f4552433732313a207472616e736665722066726f6d20696e636f72726563742060448201526437bbb732b960d91b6064820152608401610443565b6001600160a01b038216610bdc5760405162461bcd60e51b8152602060048201526024808201527f4552433732313a207472616e7366657220746f20746865207a65726f206164646044820152637265737360e01b6064820152608401610443565b610be7600082610a17565b6001600160a01b0383166000908152600360205260408120805460019290610c109084906117d8565b90915550506001600160a01b0382166000908152600360205260408120805460019290610c3e9084906117ac565b909155505060008181526002602052604080822080546001600160a01b0319166001600160a01b0386811691821790925591518493918716917fddf252ad1be2c89b69c2b068fc378daa952ba7f163c4a11628f55a4df523b3ef91a4505050565b6007546001600160a01b0316331461062d5760405162461bcd60e51b815260206004820181905260248201527f4f776e61626c653a2063616c6c6572206973206e6f7420746865206f776e65726044820152606401610443565b600780546001600160a01b038381166001600160a01b0319831681179093556040519116919082907f8be0079c531659141344cd1fd0a4f28419497f9722a3daafe3b4186f6b6457e090600090a35050565b816001600160a01b0316836001600160a01b03161415610dad5760405162461bcd60e51b815260206004820152601960248201527f4552433732313a20617070726f766520746f2063616c6c6572000000000000006044820152606401610443565b6001600160a01b03838116600081815260056020908152604080832094871680845294825291829020805460ff191686151590811790915591519182527f17307eab39ab6107e8899845ad3d59bd9653f200f220920489ca2b5937696c31910160405180910390a3505050565b610e25848484610b03565b610e318484848461109c565b6107bd5760405162461bcd60e51b81526004016104439061170c565b6060610e58826109b8565b6000610e6f60408051602081019091526000815290565b90506000815111610e8f5760405180602001604052806000815250610938565b80610e99846111a9565b604051602001610eaa92919061162c565b6040516020818303038152906040529392505050565b6001600160a01b038216610f165760405162461bcd60e51b815260206004820181905260248201527f4552433732313a206d696e7420746f20746865207a65726f20616464726573736044820152606401610443565b6000818152600260205260409020546001600160a01b031615610f7b5760405162461bcd60e51b815260206004820152601c60248201527f4552433732313a20746f6b656e20616c7265616479206d696e746564000000006044820152606401610443565b6001600160a01b0382166000908152600360205260408120805460019290610fa49084906117ac565b909155505060008181526002602052604080822080546001600160a01b0319166001600160a01b03861690811790915590518392907fddf252ad1be2c89b69c2b068fc378daa952ba7f163c4a11628f55a4df523b3ef908290a45050565b6000828152600260205260409020546001600160a01b031661107d5760405162461bcd60e51b815260206004820152602e60248201527f45524337323155524953746f726167653a2055524920736574206f66206e6f6e60448201526d32bc34b9ba32b73a103a37b5b2b760911b6064820152608401610443565b600082815260066020908152604090912082516104e4928401906112c3565b60006001600160a01b0384163b1561119e57604051630a85bd0160e11b81526001600160a01b0385169063150b7a02906110e090339089908890889060040161165b565b602060405180830381600087803b1580156110fa57600080fd5b505af192505050801561112a575060408051601f3d908101601f19168201909252611127918101906115cc565b60015b611184573d808015611158576040519150601f19603f3d011682016040523d82523d6000602084013e61115d565b606091505b50805161117c5760405162461bcd60e51b81526004016104439061170c565b805181602001fd5b6001600160e01b031916630a85bd0160e11b1490506108cc565b506001949350505050565b6060816111cd5750506040805180820190915260018152600360fc1b602082015290565b8160005b81156111f757806111e181611856565b91506111f09050600a836117c4565b91506111d1565b60008167ffffffffffffffff81111561122057634e487b7160e01b600052604160045260246000fd5b6040519080825280601f01601f19166020018201604052801561124a576020820181803683370190505b5090505b84156108cc5761125f6001836117d8565b915061126c600a86611871565b6112779060306117ac565b60f81b81838151811061129a57634e487b7160e01b600052603260045260246000fd5b60200101906001600160f81b031916908160001a9053506112bc600a866117c4565b945061124e565b8280546112cf9061181b565b90600052602060002090601f0160209004810192826112f15760008555611337565b82601f1061130a57805160ff1916838001178555611337565b82800160010185558215611337579182015b8281111561133757825182559160200191906001019061131c565b50611343929150611347565b5090565b5b808211156113435760008155600101611348565b600067ffffffffffffffff80841115611377576113776118b1565b604051601f8501601f19908116603f0116810190828211818310171561139f5761139f6118b1565b816040528093508581528686860111156113b857600080fd5b858560208301376000602087830101525050509392505050565b80356001600160a01b03811681146113e957600080fd5b919050565b6000602082840312156113ff578081fd5b610938826113d2565b6000806040838503121561141a578081fd5b611423836113d2565b9150611431602084016113d2565b90509250929050565b60008060006060848603121561144e578081fd5b611457846113d2565b9250611465602085016113d2565b9150604084013590509250925092565b6000806000806080858703121561148a578081fd5b611493856113d2565b93506114a1602086016113d2565b925060408501359150606085013567ffffffffffffffff8111156114c3578182fd5b8501601f810187136114d3578182fd5b6114e28782356020840161135c565b91505092959194509250565b60008060408385031215611500578182fd5b611509836113d2565b91506020830135801515811461151d578182fd5b809150509250929050565b6000806040838503121561153a578182fd5b611543836113d2565b9150602083013567ffffffffffffffff81111561155e578182fd5b8301601f8101851361156e578182fd5b61157d8582356020840161135c565b9150509250929050565b60008060408385031215611599578182fd5b6115a2836113d2565b946020939093013593505050565b6000602082840312156115c1578081fd5b8135610938816118c7565b6000602082840312156115dd578081fd5b8151610938816118c7565b6000602082840312156115f9578081fd5b5035919050565b600081518084526116188160208601602086016117ef565b601f01601f19169290920160200192915050565b6000835161163e8184602088016117ef565b8351908301906116528183602088016117ef565b01949350505050565b6001600160a01b038581168252841660208201526040810183905260806060820181905260009061168e90830184611600565b9695505050505050565b6000602080830181845280855180835260408601915060408160051b8701019250838701855b828110156116ec57603f198886030184526116da858351611600565b945092850192908501906001016116be565b5092979650505050505050565b6020815260006109386020830184611600565b60208082526032908201527f4552433732313a207472616e7366657220746f206e6f6e20455243373231526560408201527131b2b4bb32b91034b6b83632b6b2b73a32b960711b606082015260800190565b6020808252602e908201527f4552433732313a2063616c6c6572206973206e6f7420746f6b656e206f776e6560408201526d1c881b9bdc88185c1c1c9bdd995960921b606082015260800190565b600082198211156117bf576117bf611885565b500190565b6000826117d3576117d361189b565b500490565b6000828210156117ea576117ea611885565b500390565b60005b8381101561180a5781810151838201526020016117f2565b838111156107bd5750506000910152565b600181811c9082168061182f57607f821691505b6020821081141561185057634e487b7160e01b600052602260045260246000fd5b50919050565b600060001982141561186a5761186a611885565b5060010190565b6000826118805761188061189b565b500690565b634e487b7160e01b600052601160045260246000fd5b634e487b7160e01b600052601260045260246000fd5b634e487b7160e01b600052604160045260246000fd5b6001600160e01b0319811681146109b557600080fdfea2646970667358221220c9e0b3805d8560ab542d96d95e09de69027c6932bcc7b4d084e15e17aed9760264736f6c63430008040033",
  "linkReferences": {},
  "deployedLinkReferences": {}
}